:020000040000FA
:1000000000192020D5000000D9000000DB0000000E
:1000100000000000000000000000000000000000E0
:10002000000000000000000000000000DD000000F3
:100030000000000000000000DF000000E100000000
:10004000E30000009D180000E3000000E300000052
:10005000E30000004D0C0000E3000000E30000009E
:1000600000000000E3000000E300000000000000CA
:1000700000000000E30000003146000015460000CB
:10008000E3000000E3000000E3000000E3000000E4
:10009000E3000000E300000000000000000000009A
:1000A000E3000000E300000000000000000000008A
:1000B000E300000000000000E3000000E300000097
:1000C0000348854600F048FD0048004715570000EA
:1000D0000019202003480047FEE7FEE7FEE7FEE7A1
:1000E000FEE7FEE7C1000000F8B500242546002920
:1000F00004DA0E46012400214042B141002B04DA0B
:100100001E46002352420125B34100F0B3FB8C464A
:1001100017461E46AC4203D0002540428D41AC46F6
:10012000002C02D0002657429E4161463A46334693
:1001300001B0F0BD30B5434351435C18010C130CC2
:100140000D465D432C1980B292B20546554351438A
:100150000A0C09044D1962415843010C000440196E
:10016000514130BDD2B201E00270401C491EFBD2A9
:1001700070470022F6E710B513460A4604461946B2
:10018000FFF7F0FF204610BD421C0178401C0029FB
:10019000FBD1801A704730B504460020034600E0CA
:1001A0005B1C934203D2E05CCD5C401BF8D030BDB9
:1001B000F8B502464A40D40F42004B0052085B0893
:1001C0009A4202D20246084611464A0023D0C30D85
:1001D0004A00DDB2120EAD1A202D35DA4902012691
:1001E000490AF6058A19002C00D0524220214F1BE3
:1001F0001146B9402A411018C20D9A4221D0002C54
:1002000017D0012D08DCDA05801AD20F8019D20729
:10021000DBB200F08AFBF8BDDA05801A012340004A
:100220001B06C01880185A428018CA0F1043490094
:1002300007E04908C2071143DA05801A801940080F
:10024000801800F06AFBF8BD61000122511A001B02
:10025000F7E70122D2075140AAE70122D207504016
:10026000A6E7024670B54A40D30FDB0740002DD009
:100270004A002AD0010E140E000212020919400A87
:10028000520A8418E50104465443000A120A2E0457
:100290005043A4194219200CC543AA18120C012579
:1002A000AD03521C521912047F39240400D0521C91
:1002B000104301D44000491EC2B20C06C0092018E8
:1002C000401C4008802A02D003E0002070BD400896
:1002D0004000002900DA0020184370BD70B50246C6
:1002E0004A40D50F40004A00ED0740085208002858
:1002F00014D0002A12D0C40DD30D41020120C00534
:100300005202490A520AE41A091812187D3491421D
:1003100001D3641C00E04900002C01DA002070BD0C
:100320000023914201D3891A034340084900002861
:10033000F7D100290AD0914202D10121C90705E075
:10034000914201D2012101E00121C943E005C01819
:10035000401900F0E2FA70BDF0B507460846584073
:1003600087B0C00F049048000E4659004008490865
:10037000BC1A884105D2384631461E4617460B4600
:1003800002465800400810434CD0300D0390400501
:100390005900400D490D0590401A0290402872DA2C
:1003A00018030121000B09050843019004980092ED
:1003B000002805D001995242002088410092019006
:1003C000029840210A1A0199009800F083FA054624
:1003D0000C466B4607CB00F08DFAC0197141039AA9
:1003E0000E0D0023D71756401A467A40164344D0C4
:1003F000049A002A2DD0029A012A039A15DC1205CC
:10040000C01A914101263605001C7141D20F059E8C
:10041000D2070093019202962A46234600F0EAFA98
:1004200007B0F0BD38463146FAE71605224A0F46B6
:10043000B218C01AB74101210905001C4F4100182C
:100440007F41114618187941E20F10436D1964413C
:1004500013E0E2076D0815436408C2071443039ACA
:1004600001261205C01A91413605001C7141CE07C4
:10047000400830434908C01851412A46234600F03D
:10048000ACFACDE7FFE7049801224000C117121A29
:1004900000238B4104983146C417381AA141EEE776
:1004A00030B40124E407634030BC55E730B4012484
:1004B000E407614030BC4FE70000E0FFF0B51FB437
:1004C00088B00B990998002448400999C00F490049
:1004D00049080991C0070B990090490049080B9100
:1004E00009990898A64608431CD00B990A98084316
:1004F00018D0099801244000420D4800410D099888
:1005000024050003000B204309900B980003000B07
:1005100020430B9050181C494018002201901446AB
:10052000104605E0002001460DB0F0BD032801DAB9
:10053000034600E003239C46C11A0AAE0AE05F00AE
:1005400008ADED5B4F00F75B7D430027AA187C41A7
:10055000491C5B1E6145F2DD410004AB5A52210487
:10056000120C0A43240C401C0828DFDB019802907F
:100570000099704601910090059B049A079906988E
:1005800000F038FAD0E700000DFCFFFFF0B50C4694
:100590005C4085B0E40FE40703944C000026640837
:1005A00059009446490802460296224321D06246E9
:1005B0000A431ED06200570D4A000E032303550D57
:1005C000012402462C492405781B1B0B360B4018CE
:1005D00023432643614600901C46501AB44103D37E
:1005E0000098401C009002E0921800985B4100289F
:1005F00003DA0020014605B0F0BD00200121090505
:100600000746864611E064461D46141BB54106D3D5
:100610006546521BB341744607430C43A646CD07BB
:1006200040084908284392185B4105460D43EAD12A
:100630001046184313D06046194650407140084395
:1006400006D06046101AB34106D20122002306E00C
:1006500000220123DB0702E00122D243531000985D
:1006600074460105381C6141029C039D00196941D3
:1006700000F0B3F9BFE70000FD0300000122D2073C
:10068000002800DB101A002900DB511A814201D832
:1006900001207047002070470122D207002800DBAC
:1006A000101A002900DB511A814201D20120704743
:1006B000002070470122D207002800DB101A002911
:1006C00000DB511A814201D301207047002070479E
:1006D0000122D207002800DB101A002900DB511A82
:1006E000814201D901207047002070470122D207C2
:1006F000002800DB101A002900DB511A814201D1C9
:100700000120704700207047C217C10F504010B53C
:100710004018CA079623002100F007F910BD10B554
:1007200000229623114600F000F910BD0EB5C21745
:10073000C10F5040CA0740180021054B0293019297
:1007400000910A460B4600F055F903B000BD0000C9
:1007500033040000C20F410040020123400ADB05C0
:10076000D207090EC0187F2901DA002070479629A8
:1007700003DC9623591AC84001E096398840002AC4
:10078000F4D040427047C20FD207400040080BD05F
:10079000C10D0723DB01C91840020905400A1143B6
:1007A000C208400711437047002001467047CB0F35
:1007B000DB07490010B5490802460A4307D00A0D75
:1007C00007240903E401090B121B002A01DC0020A5
:1007D00010BDC900440F0C43C100E018D2058018B9
:1007E00000F09BF810BD70B50446002903D000202E
:1007F0002022012310E0002801D00020C043C04681
:10080000C0460DE02546D5408D4205D30D469540A6
:10081000641B1D46954040191546521E002DF1DC03
:10082000214670BD70B5002504462E46002911D022
:10083000002C01DA01254442002901DA012649424F
:100840002046FFF7D0FFB54200D04042002D00D037
:10085000494270BD002C02DA0121C90702E0002CD8
:1008600000DD03490846C046C046214670BD000071
:10087000FFFFFF7FF0B51FB40646002082B005469B
:100880004024019100901BE0019922460F4630461A
:1008900000F07AF9049A059B801A994110D310460A
:1008A0001946224600F016F8361A8F410197224663
:1008B00001200021009F00F00DF838184D410090F4
:1008C0002046641E0028DFDC019B00982946324642
:1008D00007B0F0BD10B5202A04DB0146203A914054
:1008E000002010BD914020239C1A0346E340194389
:1008F000904010BD10B5202A06DBCB170846203AE1
:100900001041C1170B4306E00B461341D040202491
:10091000A21A91400843194610BD002904DA401C70
:10092000490001D140084000704770B40024050C14
:1009300005D11024000402D1002921D01124050E74
:1009400001D100020834050F01D10001241D850FDB
:1009500001D18000A41C002801DB4000641C002998
:1009600008D020252E1B0D46F540A14000D00121C6
:100970002943084301061B1B000ADB1D02D500208A
:1009800070BC7047DB05181880180029F8DA401C85
:100990004900F5D170BC40084000704710B54100D7
:1009A0000DD04100090E962909DC7E290ADC07DBFF
:1009B000410205D0C00F7F21C007C905401810BDF6
:1009C000002010BD9622541A20210A1B0146914096
:1009D000E040FFF7A2FFA04010BD10B5002B08DAE1
:1009E0000024401C614192185B411A4301D1400828
:1009F000400010BDF0B51FB482B005460C0003D016
:100A0000084606F06BFF02E006F068FF2030024661
:100A1000009021462846FFF75DFF049B059A044697
:100A20000F4618431143084314D0184610431BD0F7
:100A3000009840210A1A1846059900F0A5F80546C5
:100A40000E46009A05990498FFF744FF084305D025
:100A5000012004E02046394607B0F0BD0020C11750
:100A600005430E432C43374300990E986305401A03
:100A70007905E40A00220C43FD0A0A3002D5002061
:100A80000146E9E70105101969410C9C0D9D00190B
:100A90006941FFF7A2FFDFE770B54B005B08034336
:100AA0000BD04B005C0D002633466542B341D41792
:100AB000AD1AA34102DB0020014670BD12053018BB
:100AC000514170BD4A0009030123090B1B0519435D
:100AD0000A4B10B5520D9A4202DA0020014610BDB1
:100AE000064B34339A4203DC9A1A00F04DF810BDDD
:100AF000034BD218FFF7EEFE10BD0000FF0300000D
:100B0000CDFBFFFF10B5002904DB0124E4074042C0
:100B10008C412146002B04DB1C460123DB0752429B
:100B2000A3418B4200D1824210BD000010B50029C4
:100B300004DB0124E40740428C412146002B04DB06
:100B40001C460123DB075242A341994200D1904247
:100B500010BD0000000000001CB5094800900948C5
:100B6000019005460126009C05E0E36807CC33436D
:100B70000C3C98471034AC42F7D3FFF7A5FA0000BD
:100B8000D0AD0000F0AD000010B5202A04DB08460F
:100B9000203AD040002110BD0B46D340D040202445
:100BA000A21A91400843194610BDFEB500231A460B
:100BB0001B1A8A4103DB0020014603B0F0BD4A0046
:100BC0000D0301212D0B0905520D0D43D10702D153
:100BD00000186D41521E5110FF31FF3101310027C5
:100BE00004463E4638460097019102460121002006
:100BF0000905FFF7C9FFC3197141F8183246844649
:100C00008E464A4161462846611A904104D36046A7
:100C1000241A954176461F46241900986D41401CC0
:100C200000903428E1DDF91930467041091BA841D4
:100C300003D20022D243134601E00022134601985A
:100C40000105381C7141FFF7C8FEB6E7044800688B
:100C5000C0B2092802D10348012101707047C04683
:100C60002030004058082020F0B58BB03E48C068C6
:100C70003721C9430D1AEEB23C4C2078864233D15D
:100C800003F0C4FC40423B4901403B48814230D321
:100C90003748017800292CD000210A91017037488B
:100CA0000078B04209D236490F18341A387803F068
:100CB00007FD641E7F1C002CF8D1304B1D70632E85
:100CC0002A4C16D9284A10680221884310602D4802
:100CD00050602B489060C820D0600A9D25701D7020
:100CE00010680843106004E021480121017003F0FE
:100CF0008DFC25480078012833D124480068FFF78F
:100D000029FD099022480068FFF724FD089021483A
:100D10000068FFF71FFD07901F480068FFF71AFDE6
:100D20000A95254604461D480068FFF713FD07464F
:100D30001B480068FFF70EFD034600260998009047
:100D4000089801900798029003942C460A9D0496F7
:100D500005960696134814A13A4603F07FFC0A480C
:100D6000067025700BB0F0BD00B24240920020200A
:100D70009100202080FFFF0080380100900020209B
:100D80005806202024111040BC04202058002020A8
:100D9000D40520201C002020CC042020A0002020EE
:100DA0009C002020000010407B4325643A25643AD3
:100DB00025643A25643A25643A25643A25643A253F
:100DC000643A25647D2400000748016802229143AB
:100DD00001600649416006498160C821C16001681F
:100DE000114301607047C04600B2424024111040D8
:100DF00058062020F0B585B09E480168C820884775
:100E0000012804D19C4801784A424A4102700126D7
:100E100032029A4803789A49002B03D10670086879
:100E200010430860974B187800280DD0964800684A
:100E30000C6814430C6000221A70944A1080091F39
:100E40000A6832430A6001E090480088904D2968A2
:100E5000491C29608F490C68624262410A6080B275
:100E6000FFF75DFC8C49FFF7FCF98C49FFF7F9F9B6
:100E70007321C905FFF7F5F989490860002C00D1F5
:100E8000F6E0039600248748075F87490B5F0480DC
:100E90002C6086480760864803601D4604930C80DA
:100EA00084480068FFF730FC064602902846FFF7AA
:100EB0002BFC3146FFF7CDF901467F4805682846EF
:100EC000FFF7CFF906467D480068FFF71DFC014695
:100ED0003046FFF76DF9FFF73DFC7849086004984C
:100EE000C019FFF711FC0299FFF7B3F90146284634
:100EF000FFF7B7F90546724E3068FFF705FC01466B
:100F00002846FFF755F9FFF725FC02903060384678
:100F1000FFF70CFC6B4E22463346FFF7CFFA6A4BC5
:100F20002246FFF7CBFA694B2246FFF72FFB684BAF
:100F30002246FFF72BFBFFF73AFC6649FFF791F9D2
:100F40006549FFF78EF965490860049D2846FFF75B
:100F5000EDFB22463346FFF7B1FA22465A4BFFF724
:100F6000ADFA2246594BFFF711FB2246584BFFF7CB
:100F70000DFBFFF71CFC5749FFF773F95649FFF7C4
:100F800070F9574908607D1B56480068FFF7BCFBA5
:100F900006462846FFF7B8FB01463046FFF759F9E9
:100FA000014651480068FFF75CF9FFF7D3FB029A4E
:100FB00081184E4B99420E4600DB1E464C4DAE4208
:100FC00000DC2E464B4F3E60121A9A42104600DB60
:100FD000184601920291A84200DC28464649086062
:100FE000039B5903049199031A045D04224F3B7833
:100FF000424F002B11D0404804603E480460304806
:1010000004603A613D603961049838603C4D28467F
:101010002146224600F0E6FA25E000913C461034D5
:1010200002990029039700DC0394039B1A600029AE
:10103000214600DC39460D60019A002A3946304DC0
:1010400000DC2146009B0B60002A049B00DC3C4630
:101050002360C1174840411A0022284600F0C2FA16
:10106000F0174640341A01222846214600F0BAFA09
:1010700005B0F0BD2000202008002020B200202074
:10108000043100405808202080825540B0002020C4
:1010900054062020380620203333534000003041CE
:1010A000E80820205408202056082020A4002020F2
:1010B000A8002020D00520205800202098002020C3
:1010C00094002020000059400000E03F00003E4016
:1010D00000002A40DB0F494000008642D80520204E
:1010E000DC052020C80420201C002020F21D000068
:1010F0000EE2FFFFB4002020B800202090120A402A
:1011000000208640B0B50A78032313400B4A845868
:101110000B4D2540EB18A92424061B1983500722E8
:1011200012064B6813401124240205599543EA180E
:101130000251001949780161B0BDC046080800009D
:10114000FCFFFF00811E091F00BFFCD2704700009A
:10115000B0B5536894681C43938923431469556957
:101160001C43D3892B431B0123430C01041909257C
:101170006D026351137852781A43BF231A408900D5
:101180004018034944589C43A2184250B0BDC04681
:1011900010110000F0B582B0002A31D091235B011C
:1011A000C3180220801A0190009255420F200602B7
:1011B0000320DC69344227D00F18FC1E24781C6001
:1011C0002C18022C1AD0DA6932421FD0BA1E1278BB
:1011D0001A60019A1218032A10D0DA69324217D025
:1011E0007A1E12781A60002C08D0DA69324208D0D0
:1011F0000A5C1A60001D2A18032ADAD1009800E060
:10120000002080B202B0F0BDC01EFAE7801EF8E7F1
:10121000401EF6E710B50F4A835880210B438350D8
:1012200080180122D2020F231B0244681C40944202
:101230000BD044681C40944207D044681C40944240
:1012400003D044681C409442EFD102688A43026094
:1012500010BDC0463812000070B50A780C231A4041
:101260000124240305196E689E43B2186A60497808
:1012700007221140035993435918015170BD0000D2
:10128000F0B584B0012422022A4B196803929143DD
:10129000196035490D686D04FCD5457E25409E6971
:1012A000A64374199C612024045D03252C40DE694B
:1012B000AE433419DC61204C256805262660466A59
:1012C00037681F6276685E6207262E402660C46912
:1012D0007F252D02DE69AE436406640C3419DC619F
:1012E0000768456882680092C6680269019242698F
:1012F00002929A69114C14403A07120B2D03ADB2B9
:10130000AA183243009D2D072D0D1543019A154350
:10131000029A1543007E2843094A02401019986139
:101320001868039A1043186008688005FCD504B05B
:10133000F0BDC04608010B40001340408D00F0FF97
:1013400072FF0F0007498860074802689202FCD5C7
:10135000012212040B6813430B600168C906FCD517
:101360007047C04604010B4004020B40F0B583B047
:101370000B794A79002A2AD01A4A1B4C1B4F212587
:101380002D01202B00D07035861802190092C21949
:10139000002B00D188251768464C27407F1917601D
:1013A000576827407D1955603568804F3D4035604E
:1013B00075683D4075600025009C256065608F2440
:1013C000E44315692540156155692540556101AA19
:1013D00013718B79537109680191114600F008F877
:1013E00003B0F0BD3818000058180000781800004D
:1013F000F0B584B06B4A82180292734BC618784BD2
:10140000C21800922A4BC4180A7901910D68294F1D
:10141000202A03920AD0254BC018002A17D16B1E30
:10142000029A536023683B40882517E0681E029AA1
:10143000506020683840204B184320606068384076
:1014400018436060012045071C4F104608E06B08F8
:10145000029A536023683B400525ED012B4323602E
:10146000009903683B402B43036030684F4B1840A2
:1014700030607068184070600020086048608F20FD
:10148000C04323690340236163690340636101989A
:10149000407903990843BD2101401068084B03407F
:1014A000C818801C106004B0F0BDC046741800005D
:1014B0007018000024F93FF001040000FFFFFFCF87
:1014C0004000FFCF70B5374A82184B6853603E4BDF
:1014D000C3180878222857D8840001A52C59A7469C
:1014E0007F150000891500007F1500008915000098
:1014F0008915000089150000891500008915000074
:101500008915000089150000891500008915000063
:101510008915000089150000891500008915000053
:101520006D150000891500006D150000891500007B
:101530008915000089150000891500008915000033
:101540008915000089150000891500008915000023
:101550008915000089150000891500008915000013
:101560006D150000891500006D1500000324240787
:101570001568A543012464072C19146004E00324B2
:1015800024071568A54315600C69D460CC68064D26
:1015900025401C68054E264074191C60097A0143D9
:1015A000116070BD04180000777702008888FDFF85
:1015B00010B507239B04194092008018024A8458F2
:1015C0009C436118815010BD3018000010B5029C7A
:1015D000A400001911431943014A815010BDC046AF
:1015E0005018000092008018014A81507047C04690
:1015F0001018000010B50122120383180C789C60AB
:101600004B7883508978014A815010BD0C1100003D
:10161000B0B51122120283580124A34383508B7862
:101620000C881C438B882343094C1C408358094D6C
:101630001D402B1983508B79CC791C43097A2143A7
:101640007E231940801842689A4351184160B0BD0A
:1016500018670000E798FDFF10B5012212038318F8
:101660000C789C604978815010BD0000074A8018B2
:101670000268120608D50268120605D5026812062D
:1016800002D502681206F3D4816170470811000088
:10169000F0B58BB002AC0025257058480669C8200B
:1016A0000090D020752101232246B047544806F00F
:1016B000BDF82078534E544C682802D00320306087
:1016C000746004F09DF9002800D091E0782005F0C6
:1016D00003FC44424441002802D1494806F0A6F8E0
:1016E000782004F0D7F800282F4603D147A006F051
:1016F0009DF82746C82005F073FB00282C4603D12F
:101700004BA006F093F83C4603F05CFA00282F4605
:1017100003D151A006F08AF82746AC2003F03EFC26
:1017200000282C4603D1594806F080F83C46FF209B
:10173000743003F0F5F800282F4603D1544806F022
:1017400075F82746C82003F07FFB002803D15148D5
:1017500006F06CF83D4608A805A904F073FD0728BB
:1017600035D104A804F02AF90898FEF7CDFF014608
:10177000049C2046FEF775FDFEF7ECFF08900998E3
:10178000FEF7C2FF01462046FEF76BFDFEF7E2FFC3
:1017900009900A98FEF7B8FF01462046FEF761FD62
:1017A000FEF7D8FF0A9008A803F084FB03AC20469C
:1017B00004F0E6F8208805994143059106994143D4
:1017C000069107994143079105A803F0DBFA012030
:1017D00005F040FA00280C4C03D0002D06D00BB0C9
:1017E000F0BD2D4806F022F8002DF8D104F00CF8D9
:1017F0000320306074600BB0F0BDC0464000202074
:101800007FAD000000030B40010000E46D70755FC8
:10181000636F6E6669677572655F6669666F206380
:101820006F6D706C657465202E2E2E2E2E2E0D0081
:101830006D70755F7365745F73616D706C655F72F9
:1018400061746520636F6D706C657465202E2E2E3B
:101850002E2E2E0D00000000646D705F6C6F6164B1
:101860005F6D6F74696F6E5F6472697665725F66D3
:1018700069726D7761726520636F6D706C657465F8
:10188000202E2E2E2E2E2E0D000000005AAD000010
:10189000F0AC000014AD000037AD0000F0B581B031
:1018A000454A1046103807680123444D2846103831
:1018B00000681C051E06F90241490CD4374218D0B5
:1018C000404F3F6827420C4600D001243E4F3F88DE
:1018D0003F19344608E03B4F3F6837421E4600D070
:1018E0000E46394F3F88BF19374E3780166826435A
:1018F00016609B0601246206860106D404461C403D
:101900000CD100061AD401B0F0BD8C4E36681E42D0
:1019100000D021462D4B1B88591808E0874C2468BD
:10192000144200D10121294A128851181A46274B26
:1019300019802968114329600006E4D5244800680D
:1019400001682448884702F095FA23480068234F2D
:1019500023490968234A1268B961F8613A62002490
:10196000214E305FFEF7D0FE38600220305EFEF779
:10197000CBFE78600420305EFEF7C6FEB8601B48E0
:10198000005FFEF7C1FEF86038617861FFF732FA58
:1019900028688021014329600D4C20684168144863
:1019A000884714490870206881680A4888471249A6
:1019B000086001B0F0BDC04648300A4048100A40F7
:1019C000FFFF000080330A405408202056082020E2
:1019D0005C00202080082020C404202090082020C3
:1019E000C0042020E00520205A082020E405202003
:1019F00068082020780820207C08202000207047DC
:101A00000020704710B51446C9B2DAB24008C0B21F
:101A1000234605F01FFB411E884110BDF0B581B083
:101A2000DEB2002E2FD01446CAB218498A60184F71
:101A30000222BA610A68920608D40A68920605D49E
:101A40000A68920602D40A689206F3D5FF22520071
:101A500010400A1F08390B680E4D1D4028180860F9
:101A600010680D490140300440180C4940181060BE
:101A70000B4DB2B228462146FFF78CFB2418361ACC
:101A800038688007F5D5002001B0F0BD18120F406E
:101A900030100F4000F8FFFFF8FF00F007000100D2
:101AA00000000F4080B502F0FBFE80BDF0B581B0B4
:101AB0001C480068800733D41B481C4901601C493E
:101AC000812048601B48801E08601B4D02272F6044
:101AD0002F6300262F600124204602F0E1FE2846F5
:101AE00010380760204602F0DBFE14480068C0078B
:101AF00003D1701C632E0646ECD30B4A0B481060D2
:101B00000B4B0C4818605860600619680143196057
:101B1000596801435960101F0949016002F074FBC4
:101B200001B0F0BD34120F4004080F40030000B1B3
:101B30000480424083000400A0120A4080130A403F
:101B400001000026F0B581B04A4C2168232808D155
:101B5000002906D14848232101600120206001B0FE
:101B6000F0BD2A2809D1012907D1022020600520D3
:101B7000C0434149486001B0F0BD8A1E052A43D8E0
:101B80007A441279520097440226141D0B2F032128
:101B9000216001463039384A916026282CD031E046
:101BA0000721216001463039334A9161262823D02C
:101BB00028E005212160014630392F4A116126288D
:101BC0001AD01FE006212160014630392A4A5161AE
:101BD000262811D016E00421216001463039264A1A
:101BE000D160262808D00DE0082121600146303957
:101BF000214AD161262805D1002020601E482821D5
:101C0000FEF7B7FA01B0F0BD2A2809D1082907D19B
:101C1000092020600520C0431749086201B0F0BDCB
:101C200009291BD12628E7D11349262048620D46F1
:101C300008352CCD48698E69C969009164277A43BB
:101C40000A214B439A1852190C4B1A6078434E43A1
:101C50003018009940180A490860CDE7002121603A
:101C6000054A282105461046FEF783FA284626280D
:101C7000C2D0C7E7F0082020B4082020F4082020B4
:101C8000F8082020F0B58BB0504E3569C827009772
:101C9000D02075214E4C01232246A8472078682881
:101CA00004D04C48032101604B49416034690097DE
:101CB000D0206B2105AA0123A04700280BD105AA3B
:101CC0001078F8210140881C1070F4680097D0202B
:101CD0006B210123A04734690097D0201B2106AA5D
:101CE0000123A04700280AD118200699014306AA1B
:101CF0001170F4680097D0201B210123A04734699C
:101D00000097D0201C2107AA0123A04700280AD150
:101D100007AA1078E72101401170F4680097D020DD
:101D20001C210123A047306901900097D020049026
:101D30006B210291039708AF01253A462B46019C7F
:101D4000A0473878BF2101403970F0680190039EA8
:101D50000096049C204602993A462B46019FB847BC
:101D60001A480069019000966A21029109AF204645
:101D70003A462B46019CA0473878DF210140397054
:101D80001248C06801900096049C204602993A4689
:101D90002B46019FB8470D480069029000963726F0
:101DA0000AAF204631463A462B46029CA047387877
:101DB000FD21014039700548C468039800900498DB
:101DC00031463A462B46A0470BB0F0BD40002020DC
:101DD0002806202000030B40010000E4B0B50248B3
:101DE0000346F833802401E0BC0020200021197054
:101DF0001A46083A11701A46103A11701A46183AE3
:101E000011701A46203A11701A46283A11701A4673
:101E1000303A11701A46383A11701A46403A117029
:101E20001A46483A11701A46503A11701A46583AF2
:101E300011701A46603A11701A46683A11701A46C3
:101E4000703A11701A46783A11701A46803A117039
:101E50001A46883A11701A46903A11701A46983A02
:101E600011701A46A03A11701A46A83A11701A4613
:101E7000B03A11701A46B83A11701A46C03A117049
:101E80001A46C83A11701A46D03A11701A46D83A12
:101E900011701A46E03A11701A46E83A11701A4663
:101EA000F03A11701A46F83A1170012212029B188A
:101EB000203C9BD10446F934802321702546083DFF
:101EC00029702546103D29702546183D2970254664
:101ED000203D29702546283D29702546303D297032
:101EE0002546383D29702546403D29702546483D08
:101EF00029702546503D29702546583D29702546B4
:101F0000603D29702546683D29702546703D297041
:101F10002546783D29702546803D29702546883D17
:101F200029702546903D29702546983D2970254603
:101F3000A03D29702546A83D29702546B03D297051
:101F40002546B83D29702546C03D29702546C83D27
:101F500029702546D03D29702546D83D2970254653
:101F6000E03D29702546E83D29702546F03D297061
:101F7000A518F83C2170203B2C469ED10446FA342B
:101F8000802321702546083D29702546103D297083
:101F90002546183D29702546203D29702546283DB7
:101FA00029702546303D29702546383D2970254643
:101FB000403D29702546483D29702546503D2970F1
:101FC0002546583D29702546603D29702546683DC7
:101FD00029702546703D29702546783D2970254693
:101FE000803D29702546883D29702546903D297001
:101FF0002546983D29702546A03D29702546A83DD7
:1020000029702546B03D29702546B83D29702546E2
:10201000C03D29702546C83D29702546D03D297010
:102020002546D83D29702546E03D29702546E83DE6
:1020300029702546F03D2970A518F83C2170203BF9
:102040002C469ED10446FB34802321702546083D52
:1020500029702546103D29702546183D29702546D2
:10206000203D29702546283D29702546303D2970A0
:102070002546383D29702546403D29702546483D76
:1020800029702546503D29702546583D2970254622
:10209000603D29702546683D29702546703D2970B0
:1020A0002546783D29702546803D29702546883D86
:1020B00029702546903D29702546983D2970254672
:1020C000A03D29702546A83D29702546B03D2970C0
:1020D0002546B83D29702546C03D29702546C83D96
:1020E00029702546D03D29702546D83D29702546C2
:1020F000E03D29702546E83D29702546F03D2970D0
:10210000A518F83C2170203B2C469ED10446FC3497
:10211000802321702546083D29702546103D2970F1
:102120002546183D29702546203D29702546283D25
:1021300029702546303D29702546383D29702546B1
:10214000403D29702546483D29702546503D29705F
:102150002546583D29702546603D29702546683D35
:1021600029702546703D29702546783D2970254601
:10217000803D29702546883D29702546903D29706F
:102180002546983D29702546A03D29702546A83D45
:1021900029702546B03D29702546B83D2970254651
:1021A000C03D29702546C83D29702546D03D29707F
:1021B0002546D83D29702546E03D29702546E83D55
:1021C00029702546F03D2970A518F83C2170203B68
:1021D0002C469ED10446FD34802321702546083DBF
:1021E00029702546103D29702546183D2970254641
:1021F000203D29702546283D29702546303D29700F
:102200002546383D29702546403D29702546483DE4
:1022100029702546503D29702546583D2970254690
:10222000603D29702546683D29702546703D29701E
:102230002546783D29702546803D29702546883DF4
:1022400029702546903D29702546983D29702546E0
:10225000A03D29702546A83D29702546B03D29702E
:102260002546B83D29702546C03D29702546C83D04
:1022700029702546D03D29702546D83D2970254630
:10228000E03D29702546E83D29702546F03D29703E
:10229000A518F83C2170203B2C469ED10446FE3404
:1022A000802321702546083D29702546103D297060
:1022B0002546183D29702546203D29702546283D94
:1022C00029702546303D29702546383D2970254620
:1022D000403D29702546483D29702546503D2970CE
:1022E0002546583D29702546603D29702546683DA4
:1022F00029702546703D29702546783D2970254670
:10230000803D29702546883D29702546903D2970DD
:102310002546983D29702546A03D29702546A83DB3
:1023200029702546B03D29702546B83D29702546BF
:10233000C03D29702546C83D29702546D03D2970ED
:102340002546D83D29702546E03D29702546E83DC3
:1023500029702546F03D2970A518F83C2170203BD6
:102360002C469ED1FF30802301700446083C21702A
:102370000446103C21700446183C21700446203C61
:1023800021700446283C21700446303C21700446EC
:10239000383C21700446403C21700446483C217082
:1023A0000446503C21700446583C21700446603C71
:1023B00021700446683C21700446703C217004463C
:1023C000783C21700446803C21700446883C217092
:1023D0000446903C21700446983C21700446A03C81
:1023E00021700446A83C21700446B03C217004468C
:1023F000B83C21700446C03C21700446C83C2170A2
:102400000446D03C21700446D83C21700446E03C90
:1024100021700446E83C21700446F03C2170841889
:10242000F8380170203B20469ED100F0C9FDB0BDB8
:1024300070B50124A603FC4D2E61642002F030FA31
:102440002E60E00328612107F84A11601346103B13
:10245000E6071E60196011601660196011601E6049
:10246000196011601660196011601E6019601160BA
:102470001E60196011601E6019601160166019609D
:102480002860286111601E60196011601E6019606B
:1024900011601660196011601E601960116016608D
:1024A000196011601E60196011601660196011607A
:1024B0001E60196028602861116016601960116043
:1024C0001E60196011601660196011601E6019604D
:1024D0001160166019601160166019601160166055
:1024E00019601160166019602860286111601E6013
:1024F000196011601660196011601E60196011602A
:102500001660196011601E60196011601660196014
:1025100011601660196011601660196028602861EA
:1025200011601660196011601660196011601E60FC
:10253000196011601E60196011601E6019601160E1
:102540001E60196011601E60196011601E601960C4
:102550002860286111601E60196011601E6019609A
:1025600011601660196011601E60196011601660BC
:10257000196011601660196011601E6019601160A9
:102580001E60196028602861116016601960116072
:10259000166019601160166019601160166019608C
:1025A0001160166019601160166019601160166084
:1025B000196011601660196028602861116016604A
:1025C000196011601E601960116016601960116059
:1025D000166019601160166019601160166019604C
:1025E000116016601960116016601960286028611A
:1025F00011601E601960116016601960116016602C
:10260000196011601660196011601E601960116018
:102610001E60196011601660196011601E601960FB
:1026200028602861116016601960116016601960D9
:1026300011601660196011601E60196011601660EB
:10264000196011601E6019601160166019601160D8
:1026500016601960286028611160166019601160A9
:102660001660196011601E601960116016601960B3
:1026700011601660196011601660196011601660B3
:102680001960116016601960286028611160166079
:102690001960116016601960116016601960116090
:1026A000166019601160166019601160166019607B
:1026B00011601E6019601160166019602860286141
:1026C00011601E60196011601660196011601E6053
:1026D0001960116016601960116016601960116050
:1026E0001660196011601660196011601E60196033
:1026F0002860286111601E60196011601E601960F9
:102700001160166019601160166019601160166022
:10271000196011601660196011601660196011600F
:10272000166019602860286111601E6019601160D0
:102730001E60196011601660196011601E601960DA
:1027400011601E60196011601660196011601E60D2
:1027500019601160166019602860286111601660A8
:1027600019601160166019601160166019601160BF
:102770001E601960116016601960116016601960A2
:1027800011601E6019601160166019602860286170
:1027900011601E601960116016601960116016608A
:1027A000196011601660196011601660196011607F
:1027B0001660196011601660196011601E60196062
:1027C0002860286111601E60196011601E60196028
:1027D00011601E60196011601660196011601E6042
:1027E000196011601E60196011601E60196011602F
:1027F0001E6019602860286111601E6019601160F8
:102800001E60196011601660196011601E60196009
:1028100011601E6019601160166019601160166009
:10282000196011601E6003E090320A40A0120A4055
:1028300019602860286111601E60196011601E60B7
:10284000196011601E60196011601E6019601160CE
:1028500016601960116016601960116016601960C9
:1028600011601E6019602860286111601E60196087
:1028700011601E60196011601660196011601E60A1
:10288000196011601E601960116016601960116096
:102890001E60196011601E60196028602861116057
:1028A0001660196011601660196011601E60196071
:1028B00011601E6019601160166019601160166069
:1028C0001960116016601960116016601960286047
:1028D000286111601E601960116016601960116036
:1028E0001E60196011601660196011601660196031
:1028F00011601E6019601160166019601160166029
:1029000019602860286111601E60196011601660EE
:10291000196011601E601960116016601960116005
:102920001660196011601E60196011601E601960E8
:102930001160166019602860286111601E601960BE
:1029400011601660196011601E60196011601660D8
:10295000196011601E60196011601E6019601160BD
:102960001E60196011601E601960286002480346ED
:10297000F833802502E0C046BC00202000211970F9
:102980001A46083A11701A46103A11701A46183A47
:1029900011701A46203A11701A46283A11701A46D8
:1029A000303A11701A46383A11701A46403A11708E
:1029B0001A46483A11701A46503A11701A46583A57
:1029C00011701A46603A11701A46683A11701A4628
:1029D000703A11701A46783A11701A46803A11709E
:1029E0001A46883A11701A46903A11701A46983A67
:1029F00011701A46A03A11701A46A83A11701A4678
:102A0000B03A11701A46B83A11701A46C03A1170AD
:102A10001A46C83A11701A46D03A11701A46D83A76
:102A200011701A46E03A11701A46E83A11701A46C7
:102A3000F03A11701A46F83A117022029B18203DA4
:102A40009CD10446F934802321702546083D297025
:102A50002546103D29702546183D29702546203D04
:102A600029702546283D29702546303D2970254688
:102A7000383D29702546403D29702546483D29703E
:102A80002546503D29702546583D29702546603D14
:102A900029702546683D29702546703D29702546D8
:102AA000783D29702546803D29702546883D29704E
:102AB0002546903D29702546983D29702546A03D24
:102AC00029702546A83D29702546B03D2970254628
:102AD000B83D29702546C03D29702546C83D29705E
:102AE0002546D03D29702546D83D29702546E03D34
:102AF00029702546E83D29702546F03D2970A51826
:102B0000F83C2170203B2C469ED10446FA348023A9
:102B100021702546083D29702546103D297025461F
:102B2000183D29702546203D29702546283D2970ED
:102B30002546303D29702546383D29702546403DC3
:102B400029702546483D29702546503D2970254667
:102B5000583D29702546603D29702546683D2970FD
:102B60002546703D29702546783D29702546803DD3
:102B700029702546883D29702546903D29702546B7
:102B8000983D29702546A03D29702546A83D29700D
:102B90002546B03D29702546B83D29702546C03DE3
:102BA00029702546C83D29702546D03D2970254607
:102BB000D83D29702546E03D29702546E83D29701D
:102BC0002546F03D2970A518F83C2170203B2C4685
:102BD0009ED10446FB34802321702546083D297090
:102BE0002546103D29702546183D29702546203D73
:102BF00029702546283D29702546303D29702546F7
:102C0000383D29702546403D29702546483D2970AC
:102C10002546503D29702546583D29702546603D82
:102C200029702546683D29702546703D2970254646
:102C3000783D29702546803D29702546883D2970BC
:102C40002546903D29702546983D29702546A03D92
:102C500029702546A83D29702546B03D2970254696
:102C6000B83D29702546C03D29702546C83D2970CC
:102C70002546D03D29702546D83D29702546E03DA2
:102C800029702546E83D29702546F03D2970A51894
:102C9000F83C2170203B2C469ED10446FC34802316
:102CA00021702546083D29702546103D297025468E
:102CB000183D29702546203D29702546283D29705C
:102CC0002546303D29702546383D29702546403D32
:102CD00029702546483D29702546503D29702546D6
:102CE000583D29702546603D29702546683D29706C
:102CF0002546703D29702546783D29702546803D42
:102D000029702546883D29702546903D2970254625
:102D1000983D29702546A03D29702546A83D29707B
:102D20002546B03D29702546B83D29702546C03D51
:102D300029702546C83D29702546D03D2970254675
:102D4000D83D29702546E03D29702546E83D29708B
:102D50002546F03D2970A518F83C2170203B2C46F3
:102D60009ED10446FD34802321702546083D2970FC
:102D70002546103D29702546183D29702546203DE1
:102D800029702546283D29702546303D2970254665
:102D9000383D29702546403D29702546483D29701B
:102DA0002546503D29702546583D29702546603DF1
:102DB00029702546683D29702546703D29702546B5
:102DC000783D29702546803D29702546883D29702B
:102DD0002546903D29702546983D29702546A03D01
:102DE00029702546A83D29702546B03D2970254605
:102DF000B83D29702546C03D29702546C83D29703B
:102E00002546D03D29702546D83D29702546E03D10
:102E100029702546E83D29702546F03D2970A51802
:102E2000F83C2170203B2C469ED10446FE34802382
:102E300021702546083D29702546103D29702546FC
:102E4000183D29702546203D29702546283D2970CA
:102E50002546303D29702546383D29702546403DA0
:102E600029702546483D29702546503D2970254644
:102E7000583D29702546603D29702546683D2970DA
:102E80002546703D29702546783D29702546803DB0
:102E900029702546883D29702546903D2970254694
:102EA000983D29702546A03D29702546A83D2970EA
:102EB0002546B03D29702546B83D29702546C03DC0
:102EC00029702546C83D29702546D03D29702546E4
:102ED000D83D29702546E03D29702546E83D2970FA
:102EE0002546F03D2970A518F83C2170203B2C4662
:102EF0009ED1FF30802301700446083C21700446B7
:102F0000103C21700446183C21700446203C21707E
:102F10000446283C21700446303C21700446383C6D
:102F200021700446403C21700446483C2170044610
:102F3000503C21700446583C21700446603C21708E
:102F40000446683C21700446703C21700446783C7D
:102F500021700446803C21700446883C2170044660
:102F6000903C21700446983C21700446A03C21709E
:102F70000446A83C21700446B03C21700446B83C8D
:102F800021700446C03C21700446C83C21700446B0
:102F9000D03C21700446D83C21700446E03C2170AE
:102FA0000446E83C21700446F03C21708418F8384F
:102FB0000170203B20469ED100F002F870BD000059
:102FC000F0B585B00120C5030107C2070026DC4823
:102FD00001907C4C7C4F039507E00198401C0190C8
:102FE000009E761C082E00D1E9E03D612160234659
:102FF000103B1A60196021602260196021601A601C
:10300000196021601A6019602160226019602160D6
:10301000042E254600D31D462A6019602160B007A2
:10302000254600D51D462A60196021600096F007EC
:10303000254600D01D462A601960039D3D603D6114
:103040002160226019602160226019602160226085
:10305000196021602260196021602260196021607E
:10306000226019602160226019602160226019606D
:103070003D603D612160226019602160226019601D
:1030800021602260196021601A601960216022604D
:10309000196021602260196021602260196021603E
:1030A000226019603D608020019E08E01A6029605E
:1030B000039D3D60801E049E103600288DD00023A5
:1030C0000496F6563D6021602546103D002E2346AD
:1030D00000DA2B461A60296021607306234600D56A
:1030E0002B461A6029602160B306234600D52B4683
:1030F0001A6029602160F306234600D52B461A602A
:10310000296021603307234600D52B461A602960C9
:1031100021607307234600D52B4602901A60296070
:103120002160B307234600D52B4638461A60296034
:103130002160F307234600D02B461A602960039FC5
:1031400007600823049EF656076007462160002E9C
:10315000234600DA2B461A60296021607306234655
:10316000029800D52B461A6029602160B3062346D9
:1031700000D52B461A6029602160F306234600D54E
:103180002B461A60296021603307234600D52B4661
:103190001A60296021607307234600D52B461A6008
:1031A00029602160B307234600D52B461A602960A9
:1031B0002160F307234600D178E72B4676E705B078
:1031C000F0BDC046A0120A4090320A40F0B58AB065
:1031D00009910590002B00D1ABE00F980290203AA6
:1031E000D0B2009000240999069308E00598401C8D
:1031F00005900999019C641C9C4200D199E00C2B1C
:10320000019403D0009800014C4A03E00C20009A7E
:103210005043494A1018001902780598C0B203902B
:103220000020049004460894CCB201263F2C374677
:1032300000D8049F059840B20790002800D4049E4F
:103240003E4350B2002813D4002E26D10720054655
:103250008D430126AE40E408001B029B002BC4B244
:1032600013D00398C000364B1818055DB54312E023
:10327000002E12D1072005468D430126AE40E408FA
:10328000001B029B002BC4B2EBD00398C000FF4B85
:103290001818055D35430555069B4F1CFCB209986F
:1032A000201A9842A2D0012000253F2C064600D8C3
:1032B0002E46079B002B034600D42B46334355066E
:1032C00013D4002B25D107252E46BE430123B3403E
:1032D000E4082C1B029D002DE4B213D0039DED00E9
:1032E000EA4E75192E5D9E4312E0002B11D1072581
:1032F0002E46BE430123B340E4082C1B029D002D43
:10330000E4B2EBD0039DED00E04E75192E5D1E4337
:103310002E55891CCBB2099C1C1B069B9C42089C09
:1033200000D163E72043A41C9200072800D27AE76B
:1033300060E70AB0F0BDC04624A2000098A60000D5
:10334000BC002020F0B591B0049210910390069338
:10335000002B00D192E116990E910698421E079219
:10336000801E0190480802900021059107E000208E
:1033700005900899491C0698814200D17EE1C8B2A7
:103380000A460799C9B28142089201D1012121E080
:10339000D043069940180199891AC9B2032901D26C
:1033A000012109E0FC22024000230121B44D6943C0
:1033B0001B1DDCB29442FAD1032210400AD001282E
:1033C00001D10A2005E0022802D07D20C00000E0E3
:1033D000642041430498FDF706FA0A21FDF703FA39
:1033E0000991059800280DD10798089988420E9AEE
:1033F00005DD0998002800D1A6E001200590002AEB
:1034000004D1B7E70E9A0899002AB3D01020099B7F
:1034100003430993084602994843039940180D90C5
:103420000024109B07E00D98401C0D90109B0A9CF7
:10343000641C94429DD00C2A0A9403D00998000180
:10344000914903E00C20099948438E490818001956
:1034500004780D98C0B20B9000200C900F90D8B259
:1034600001253F282E4600D80C9E0D994FB2002F03
:1034700000D40C9D354361B2002911D4002D20D118
:103480000B99C900814A5118C0080722101AC0B20E
:103490000D5C9A43012696400E9AB5430D5410E0F8
:1034A000002D0ED10B99C900784A5118C008072287
:1034B000101AC0B20D5C9A43012696400E9A2E4314
:1034C0000E54581CC5B21099691A9142ABD0012113
:1034D00000223F2D0E4600D81646002F0F4600D47E
:1034E00017463743620610D4002F1ED10B9AD20024
:1034F000664EB218ED080726751BEDB2575D864380
:103500000120B040874357550FE0002F0DD10B9A93
:10351000D2005E4EB218ED080726751BEDB2575D5E
:1035200086430120B040384350559B1CD8B2109AB6
:10353000801A0E9A90420F9800D174E70143801CC4
:10354000A40007298AD372E7002A00D193E0084635
:1035500002994843039940180D9000211046109A93
:1035600009E00D98401C0D90109A0A99491C0E987C
:10357000814200D1FBE60C28424800D042480A9123
:10358000435C0D98C0B20B9000200C900F90D0B20D
:1035900001243F28274600D80C9F0D994EB2002EDB
:1035A00000D40C9C3C4359B2002910D4002C1ED1ED
:1035B0000B99C900354C6118C0080724201AC0B205
:1035C0000D5C94430127A740BD430D540FE0002C30
:1035D0000DD10B99C9002D4C6118C0080724201A81
:1035E000C0B20D5C94430127A7402F430F54571CD2
:1035F000FCB21098201A0E998842B2D00121002501
:103600003F2C084600D82846002E0E4600D42E46F1
:103610000643580610D4002E1ED10B98C0001B4D37
:103620002818E40807252C1BE4B2065DBD430127DA
:10363000AF40BE4306550FE0002E0DD10B98C000E1
:10364000124D2818E40807252C1BE4B2065DBD4383
:103650000127AF4037430755921CD0B2109C001B86
:103660000E9CA0420F9800D17BE70143801C9B0079
:1036700007298BD379E7002005907BE611B0F0BDD8
:103680001027000024A2000098A60000BC00202003
:10369000F0B58BB014461278002A00D1E3E305465A
:1036A00007E0029C6278641C019D0835002A00D165
:1036B000D9E3E8B27A2800D900257A2800D9103158
:1036C000C8B23B2800D234E30149F831802201E03E
:1036D000BC00202000250D700846083805700846FB
:1036E00010380570084618380570084620380570EF
:1036F00008462838057008463038057008463838BE
:103700000570084640380570084648380570084678
:1037100050380570084658380570084660380570FE
:1037200008466838057008467038057008467838CD
:1037300005700846803805700846883805700846C8
:10374000903805700846983805700846A03805700E
:103750000846A83805700846B03805700846B838DD
:1037600005700846C03805700846C8380570084618
:10377000D03805700846D83805700846E03805701E
:103780000846E83805700846F03805700846F838ED
:103790000570012000020918203A9BD1014AF93234
:1037A000802101E0BC00202015701346083B1D70ED
:1037B0001346103B1D701346183B1D701346203BEB
:1037C0001D701346283B1D701346303B1D70134679
:1037D000383B1D701346403B1D701346483B1D701F
:1037E0001346503B1D701346583B1D701346603BFB
:1037F0001D701346683B1D701346703B1D701346C9
:10380000783B1D701346803B1D701346883B1D702E
:103810001346903B1D701346983B1D701346A03B0A
:103820001D701346A83B1D701346B03B1D70134618
:10383000B83B1D701346C03B1D701346C83B1D703E
:103840001346D03B1D701346D83B1D701346E03B1A
:103850001D701346E83B1D701346F03B1D70131896
:10386000F83A157020391A469ED1024AFA32802160
:1038700002E0C046BC00202015701346083B1D70B6
:103880001346103B1D701346183B1D701346203B1A
:103890001D701346283B1D701346303B1D701346A8
:1038A000383B1D701346403B1D701346483B1D704E
:1038B0001346503B1D701346583B1D701346603B2A
:1038C0001D701346683B1D701346703B1D701346F8
:1038D000783B1D701346803B1D701346883B1D705E
:1038E0001346903B1D701346983B1D701346A03B3A
:1038F0001D701346A83B1D701346B03B1D70134648
:10390000B83B1D701346C03B1D701346C83B1D706D
:103910001346D03B1D701346D83B1D701346E03B49
:103920001D701346E83B1D701346F03B1D701318C5
:10393000F83A157020391A469ED1024AFB3280218E
:1039400002E0C046BC00202015701346083B1D70E5
:103950001346103B1D701346183B1D701346203B49
:103960001D701346283B1D701346303B1D701346D7
:10397000383B1D701346403B1D701346483B1D707D
:103980001346503B1D701346583B1D701346603B59
:103990001D701346683B1D701346703B1D70134627
:1039A000783B1D701346803B1D701346883B1D708D
:1039B0001346903B1D701346983B1D701346A03B69
:1039C0001D701346A83B1D701346B03B1D70134677
:1039D000B83B1D701346C03B1D701346C83B1D709D
:1039E0001346D03B1D701346D83B1D701346E03B79
:1039F0001D701346E83B1D701346F03B1D701318F5
:103A0000F83A157020391A469ED1EC4AFC328021D2
:103A100015701346083B1D701346103B1D7013466E
:103A2000183B1D701346203B1D701346283B1D702C
:103A30001346303B1D701346383B1D701346403B08
:103A40001D701346483B1D701346503B1D701346B6
:103A5000583B1D701346603B1D701346683B1D703C
:103A60001346703B1D701346783B1D701346803B18
:103A70001D701346883B1D701346903B1D70134606
:103A8000983B1D701346A03B1D701346A83B1D704C
:103A90001346B03B1D701346B83B1D701346C03B28
:103AA0001D701346C83B1D701346D03B1D70134656
:103AB000D83B1D701346E03B1D701346E83B1D705C
:103AC0001346F03B1D701318F83A157020391A464A
:103AD0009ED1E64AFD32802115701346083B1D70C9
:103AE0001346103B1D701346183B1D701346203BB8
:103AF0001D701346283B1D701346303B1D70134646
:103B0000383B1D701346403B1D701346483B1D70EB
:103B10001346503B1D701346583B1D701346603BC7
:103B20001D701346683B1D701346703B1D70134695
:103B3000783B1D701346803B1D701346883B1D70FB
:103B40001346903B1D701346983B1D701346A03BD7
:103B50001D701346A83B1D701346B03B1D701346E5
:103B6000B83B1D701346C03B1D701346C83B1D700B
:103B70001346D03B1D701346D83B1D701346E03BE7
:103B80001D701346E83B1D701346F03B1D70131863
:103B9000F83A157020391A469ED1B44AFE32802177
:103BA00015701346083B1D701346103B1D701346DD
:103BB000183B1D701346203B1D701346283B1D709B
:103BC0001346303B1D701346383B1D701346403B77
:103BD0001D701346483B1D701346503B1D70134625
:103BE000583B1D701346603B1D701346683B1D70AB
:103BF0001346703B1D701346783B1D701346803B87
:103C00001D701346883B1D701346903B1D70134674
:103C1000983B1D701346A03B1D701346A83B1D70BA
:103C20001346B03B1D701346B83B1D701346C03B96
:103C30001D701346C83B1D701346D03B1D701346C4
:103C4000D83B1D701346E03B1D701346E83B1D70CA
:103C50001346F03B1D701318F83A157020391A46B8
:103C60009ED1824AFF32802115701346083B1D7099
:103C70001346103B1D701346183B1D701346203B26
:103C80001D701346283B1D701346303B1D701346B4
:103C9000383B1D701346403B1D701346483B1D705A
:103CA0001346503B1D701346583B1D701346603B36
:103CB0001D701346683B1D701346703B1D70134604
:103CC000783B1D701346803B1D701346883B1D706A
:103CD0001346903B1D701346983B1D701346A03B46
:103CE0001D701346A83B1D701346B03B1D70134654
:103CF000B83B1D701346C03B1D701346C83B1D707A
:103D00001346D03B1D701346D83B1D701346E03B55
:103D10001D701346E83B1D701346F03B1D701318D1
:103D2000F83A157020391A469ED1FFF749F92278E2
:103D300029460294C8B20A90203AD0B203900020DB
:103D400007900346019508950E46049109E00898EE
:103D5000401C089004990E46059B5B1C0C2B00D15F
:103D60009FE40C2003994843414A10180593C15C15
:103D70000898C0B2069007980990F0B201223F2837
:103D8000144600D8079C089B5FB2002F00D4079A06
:103D900022434BB2002B13D4002A21D1069AD20021
:103DA000324B9A18C0080723181AC0B2145CB343E8
:103DB00001259D40AC43145412E0C046BC002020B5
:103DC000002A0DD1069AD200284B9A18C008072362
:103DD000181AC0B2145CB34301259D402543155405
:103DE000721CD0B20A9BC31A0C2BB0D00125002341
:103DF0003F282C4600D81C46002F2F4600D41F46D3
:103E000027434B0610D4002F1ED1069BDB00174C16
:103E1000E318C0080724201AC0B21F5C9443012293
:103E2000A24097431F540FE0002F0DD1069BDB00EB
:103E30000E4CE318C0080724201AC0B21F5C94433C
:103E40000122A2403A431A54B61CF0B20A9A801AD0
:103E50000C28099800D17AE70543801C8900072DBA
:103E60008AD3049978E70BB0F0BDC046BC0020208F
:103E700024A20000F0B58BB009A80190704C00940A
:103E80007048714905AA0AAB00F0AAFE2088C00557
:103E900000D4D3E00598FCF737FC6121CD05294615
:103EA000FCF7DFF90446694804600698FCF72CFC2F
:103EB0002946FCF7D6F90646654806600798FCF7E0
:103EC00023FC2946FCF7CDF90746624807600898AD
:103ED000FCF71AFC2946FCF7C4F905465E48056064
:103EE0000320810704913046FCF7BBF906462046C3
:103EF0002146FCF75DF93946FCF7B3F90446304634
:103F00002946FCF7AEF92146FCF752F9FCF73BFCD9
:103F100004F010FA514A524BFCF7D0FAFCF747FC78
:103F2000504908604B48046820462146FCF740F998
:103F30000546464800680146FCF73AF944490E68D0
:103F40003146FCF78EF90746434801682846FCF7DE
:103F500088F93946FCF72CF9FCF715FC039002911F
:103F600030460499FCF77DF9074620462946FCF7C0
:103F700078F9044638463146FCF773F92146FCF7D8
:103F800068F97F21C905FCF713F9FCF7FCFB024631
:103F90000B460398029904F015FC304A304BFCF7AD
:103FA0008DFAFCF704FC30490860284804682A4868
:103FB000016804912046FCF754F906462448076836
:103FC0002448056838462946FCF74BF93146FCF78A
:103FD000EFF80146FCF7ECF8FCF7D5FB03900291F3
:103FE00038463946FCF73DF9064620462146FCF79F
:103FF00038F93146FCF7DCF8044628462946FCF738
:1040000030F901462046FCF724F90446049801469D
:10401000FCF727F901462046FCF71BF9FCF7B3FB38
:1040200002460B460398029904F0CCFB0B4A0C4B5A
:10403000FCF744FAFCF7BBFB0C4908600BB0F0BD81
:10404000EC0820205A082020E405202060002020D1
:10405000DC082020E0082020E40820206666666650
:1040600066A64C40C4042020C0042020E005202087
:1040700010B50E480E49FDF745F80E4800210160C5
:10408000012002040C490B6813430B607D2252018E
:104090004A610202094B1C6A14431C621C681443E7
:1040A0001C600A6802430A6010BDC0460020004040
:1040B0006CA10000803100400031004028300040F9
:1040C00080B503480021034AFDF742F880BDC04691
:1040D00000A0424074A1000080B5FFF7F1FF80BD51
:1040E00010B5064C06492046FDF784FA05492046DE
:1040F000FDF7E8F904480121016010BD0080864009
:104100008CA1000090A1000008918640B0B5304A13
:10411000882191632F4804230360D1630821016043
:104120002D4B591C1160516001214C061568254327
:10413000156055682543556082251565536595655D
:10414000D365264C2562236381235366244D656124
:10415000244D55639564936053619367D36765639A
:10416000656425652566E360236163602360092239
:1041700012071D4B1A611B2252031A601B4A1A6454
:10418000C9031B4A13680B43136005218904136993
:104190000B43136117490A6A174B1A430A620A68EC
:1041A0001A430A6001463039612252020A600260F5
:1041B00012480168124A0A430260112000051149A1
:1041C0000A6A02430A620A6802430A60B0BDC04636
:1041D00004804240D0320A40820004008C80424079
:1041E000810005008100060090120A4000600390E3
:1041F00090130A4028100A4080000006A0330A40AD
:104200000001010028300A4080B511481149FDF72E
:1042100023F803204102104802680A43026001218A
:104220000A020368134303600022426109224262CA
:10423000826B07239A4382631A02836B93438363DF
:10424000826A042313438362826A0A43826280BDC6
:1042500000000F40A4A1000000120F4070B582B012
:104260001B4C1C492046FDF7C5F91B492046FDF7AC
:104270007DF81A4801681A4A0A4002600025009534
:10428000204629462A462B46FDF7A0F92046294616
:104290002A46FDF78DF9204629462A46FDF7A2F960
:1042A00001260096204629462A462B46FDF78EF920
:1042B000204629463246FDF77BF9204629463246FC
:1042C000FDF790F9074886600321016002B070BDD8
:1042D00000208640A6A10000ACA100000438864062
:1042E0007F00FFFF00318640F0B581B01B480024FD
:1042F00004600F2000021A4D2968814301277E02C5
:10430000881928600320C043291F0A6802400A60F8
:104310006868B84368603802696881436960114819
:10432000FCF7AEFF28681021084320229043286044
:1043300038032A6802432A60A86B0843A863686BA5
:10434000B04368632046FCF7FDFFFF2000020649EA
:104350000A6882430A6001B0F0BDC04608030B4002
:1043600004010B40B4A1000000E400E00548042172
:1043700001600549416000218160016805220A430E
:104380000260704710E000E0FEFFFF0010B5084C2F
:1043900008492046FDF72EF907492046FDF792F817
:1043A000064801680122114301600548026010BD02
:1043B00000400840DCA10000E0A1000028500840B7
:1043C0000851084010B5164C16492046FDF744F92F
:1043D00015492046FDF71CF90320C1031348026864
:1043E0008A4302600169504A0A40412189005118FC
:1043F000016141691B220A4324218A4342614168C9
:104400000122114043689343591841609102084BBF
:104410001C680C431C6001681143016010BDC0465C
:1044200000801040F4A10000F6A1000000911040AF
:104430002890104010B5194C19492046FDF70CF989
:1044400018492046FDF7E4F80320C1031648026826
:104450008A4302600169344A0A40412189005118A7
:10446000016141691B220A4324218A434261426857
:1044700001210A4043688B439A1842608A020B4B21
:104480001A600F221202C3689343052252029A183F
:10449000C26002680A43026010BDC04600001040BE
:1044A00000A2000002A200000011104058101040AD
:1044B000B0B5194C19492046FDF7CEF818492046E9
:1044C000FDF7A6F80321CA03164803689343036067
:1044D0000269154B13400A330361426936231343C3
:1044E0000922934343614368012213404468944383
:1044F000E318436093020D4C25681D432560FF239C
:104500001B040B4C25689D438905691821600168CF
:1045100011430160B0BDC046002010400CA2000055
:104520000EA20000003110400000FFFF28301040B4
:104530000CE400E080B500F025F8FFF7E7FDFFF799
:10454000D3FEFFF78BFEFFF721FFFFF7C9FDFFF753
:104550005BFEFFF737FFFFF76DFFFFF7A9FFFFF7E0
:1045600087FDFFF7B9FDFFF701FF74200349002223
:104570000A54B82002490A5480BDC04620072020B2
:1045800098072020F0B581B01448154A42601548BC
:1045900042601548426015484260154D6A60154EEC
:1045A0007260154F7A60154B5A6015494A6015487C
:1045B0004260154A094C22600A4C22600A4C226073
:1045C0000A4C22602A6032603A601A600A60026017
:1045D0001020FCF7B7FD01B0F0BDC04600080A404E
:1045E000030000B100280A40002886400048084027
:1045F0000088864000080F400088104000081040E6
:10460000002810400028004001000026C148006832
:104610007047C04604480068C0B20B2803D1034865
:104620004168C9B20160704720901040209110404D
:1046300080B507480068C0B20B2807D1054800685C
:10464000C1B2054A118040B2FDF77CFA80BDC04678
:1046500020301040243110403C06202082B0F0B5BC
:1046600081B004460692079306AA0092124D28468E
:1046700003F022F92878002819D01049661800277D
:1046800008E0C1B22046FCF7F1FF7F1CF8B2285CBD
:1046900000280CD03168C907F3D03168C907F0D0C1
:1046A0003168C907EDD03168C907F3D1E9E701B036
:1046B000F0BC01BC02B00047D0042020081100006B
:1046C000F0B585B061280FD167490A78534253414C
:1046D0000B7001464239022916D85F4900220A7040
:1046E0005E490A7001211EE00B2800D285E00021FE
:1046F0005A280A460B4600D177E0452873D0412856
:10470000E7D101220B4670E0534A00211170534A51
:104710001170FE220240463A534253410446483C3F
:10472000624262411A434F4B19704D490A707D280D
:1047300005D07B2861D1594901220A7061E04B49BB
:10474000C878502803D154480121017075E0487899
:10475000232872D0464A1678464F3E70042E33D333
:10476000F0B242494118491E0D781178081AFBF73A
:10477000DDFF02460B4600203F4904F0F1F80490AB
:1047800003913878461E3E70303D2846FBF7CEFF39
:1047900005460C4639480068FBF7F5FF0290019189
:1047A00028462146049A039BFBF788FE029A019B48
:1047B000FBF7D2FDFBF7FBFF2D4A2C492F4B18606E
:1047C000F0B20328CCD848783038052835D8C04610
:1047D0007844007940008744022820241C2C274874
:1047E00000682C4928E001230A461B4C23701B4B10
:1047F0001A701B4A11701B4A117028490978012947
:1048000028D11B490A78194B9854501C087005B0E0
:10481000F0BD1A4800681B490EE0184800681B49A3
:104820000AE016480068184906E01448006818496C
:1048300002E012480068124908600D48002101702A
:10484000164801700B4801700C480160074832217E
:10485000FBF78FFC05B0F0BDAE002020AF0020209C
:10486000AC002020AD00202008002020F4052020EE
:10487000260620202706202000002440EC052020CA
:10488000CC0420201C002020D4052020580020200B
:104890009C002020A0002020BC042020F005202027
:1048A00070B51C490A681C4BD12800D3D120D318FD
:1048B0001A4C4443002002E0751BA54229D20D6822
:1048C000954200D901200606164600D01E46751BEB
:1048D000A5421ED20D68954200D901200606164653
:1048E00000D01E46751BA54213D20D68954200D913
:1048F00001200606164600D01E46751BA54208D2AA
:104900000D68954200D9012006061646D4D01E46F1
:10491000D2E770BD18E000E0FFFFFF008038010023
:10492000F0B58DB0044607AF0920F870E320B870E9
:10493000CA207870022002903870682004213A461C
:1049400002F046FBA32179723972F97140232340AA
:104950005C20C043002B024601D03D22D243FA70B6
:10496000002B024601D03722D243BA703F2505936F
:10497000002B024600D0EA4301957A703970012578
:104980002E023146803121400691014601D0392165
:10499000C943B97106990029014601D03321C943A1
:1049A00079710699002901D03B20C04338717D48B8
:1049B0000F300A213A4602F00BFB0320272120404A
:1049C0000490039101D0202000E0C843387075485E
:1049D0001E3029463A4602F0FBFA9720C000A10695
:1049E00005D4C7210C9172490B91724904E05D21F5
:1049F0000C916D490B916D490A9109210AAA02F0A7
:104A0000E7FA0698002821D0264001D0642000E073
:104A10006F20C04307AAD070002E01D0492000E0CB
:104A20004B20C0439070002E01D0742000E07F2006
:104A3000C0435070002E01D04D2000E04F20C043F5
:104A4000107058480A30042102F0C2FA8B2000018D
:104A5000E10704D107AAD8211170012149E007AA72
:104A6000F82111700125294602F0B2FA0720FA2137
:104A700000F000FB0AAA019810702920C7003846F0
:104A8000294602F0A5FA0AAA00261670F81D294642
:104A900002F09EFA0AAA142050701670384696301A
:104AA000029D294602F094FA0AAA642050701670FA
:104AB00038469230294602F08BFA0AAA9020D0702C
:104AC000F92090708E2050701670384614300421F2
:104AD00002F07EFA0AAA082050701670384612308A
:104AE000294602F075FA0AAA557016701037384632
:104AF000294602F06DFA059DA007039800D52620EF
:104B0000C04307AA10702C48012102F061FA600727
:104B100004D42A480A9004210AAA09E00AAAC62055
:104B2000D070C4209070C2205070C020107004213A
:104B30001C4802F04DFA01F0B3FAE00606D4204812
:104B40000A901848801D04210AAA0BE00AAA3820FE
:104B5000D0703020907028205070202010701148A4
:104B6000801D042102F034FA01F09AFA0820204353
:104B700081490880002D00D006250698002800D025
:104B8000AD1D1420044201D01020054304980028D4
:104B900000D02D1D01F084FA7648057000200DB07C
:104BA000F0BDC046980A0000B4980D35B8AAB38D80
:104BB000B088C3C5B8AAAAAA3D0700008B8B8B8B0F
:104BC000A3A3A3A380B50120820203480349C823FD
:104BD00001F012F880BDC046F60B0000769500008B
:104BE000F0B591B0089307920C460646169F002533
:104BF0003D806048007809A9179A01F0E5F901465F
:104C0000E843002901D011B0F0BD04A9D0C15A4930
:104C10000E880124230214210E4249D001930296EA
:104C2000099903940A0609A94B781B049C18CA78B1
:104C30008B781B029A181219079F3A600A9A12067B
:104C40004B791B049A18CB798E793602F3189B188E
:104C50007B600B9B1B064E7A3604F618CB7A8D7A56
:104C60002D02EB189B19BB600C9B1B064D7B2D0482
:104C7000EB18CD7B897B09024919C918F960111419
:104C800049432214524351183214524389181A14BA
:104C900052438918F12212068918039A520691424A
:104CA0005FD806990888019B184308801025029E4A
:104CB000700602D42846069C18E009A841194A78D3
:104CC000405D00028018049C2080C8788A78120217
:104CD000101860804879097909020818A080069C9C
:104CE00020880821014321800620284380331E426A
:104CF000059D15D009A90A185378095C0902C9183D
:104D00002980D17893781B025918698051791279DA
:104D100012025118A980218870220A432280801D26
:104D2000B10718D009A90D18EC786878C1070AD026
:104D300012490A68002A06D007202040411CA0061C
:104D4000400F90476878000705D50D480168002995
:104D500001D0A0098847089802F0F8F9002011B0A6
:104D6000F0BD054601F09CF928460021069A118005
:104D700011B0F0BD520620204C0620204006202015
:104D800044062020F0B58BB0054607AC204600F065
:104D9000F7FDB748068830090C21069108400595B3
:104DA0002A58F00500D55242D3172088C4030021A9
:104DB00020460491FBF7BEF903900F46880908AD21
:104DC000A872880B6872880D2872700806990840CE
:104DD00005990A58B00600D55242D31702942046CE
:104DE0000499FBF7A7F901900C468809A871880B74
:104DF0006871880D2871B007000F05990A5870076F
:104E000000D55242D31702980499FBF793F98A0907
:104E1000AA708A0B6A708A0D2A70BA00039B9B0FD6
:104E20009A18EA72A200019B9B0F9A18EA718900F6
:104E3000800F4018E870A520800006992A4602F0ED
:104E4000C7F80BB0F0BDC046F0B585B0134904916A
:104E500013490391134902910026F443C82819D835
:104E60006D462E700746C1B2C820FBF7BCFC401E41
:104E700068700D4802212A4602F0AAF8002809D1DC
:104E80000A480C2102AA02F0A3F8002802D108481F
:104E900007803446204605B0F0BDC046BBAFDFDF1B
:104EA000AAF1DFDFFEF2ABC416020000C10A000067
:104EB00050062020F0B585B06D490C88A107090F78
:104EC00003904058610700D54042C117324A00267E
:104ED0003346FBF72FF98A0904AFBA708A0B7A7050
:104EE0008A0D3A708900800F4018F87020090C254F
:104EF000284003990858E10500D54042C117264AC9
:104F00003346FBF717F90290019160082840039996
:104F1000085803903D200501042128463A4602F036
:104F200057F80146F043002901D005B0F0BD039BBE
:104F3000019F029EA10604D5044618465842164A0F
:104F400002E00446144A1846C1170023FBF7F2F8A2
:104F50008B0904AA93708B0B53708B0D137089000F
:104F6000800F4018D070281D042102F031F800286D
:104F70002046DAD1B800B10F081804AAD070010A8F
:104F80009170010C5170000E1070083504212846F4
:104F900002F01EF805B0F0BD09E3CA02F0B583B017
:104FA0000446032108402D4B1D5C02AA15702C4DB0
:104FB000285C01AE30702006800F1F5C9770E706FA
:104FC000BF0FDB5D5370285CB070E85D7070254EDC
:104FD000304601F0FDFF0027FD43002829D1301D98
:104FE000032101AA01F0F4FF002822D11E480190FC
:104FF0001E48029060071FD4A00625D4E00505D501
:1050000001A86721817002A87721817030461A308B
:10501000032102AA01F0DCFF00280AD10B3603218C
:1050200001AA304601F0D4FF002802D110480480C4
:105030003D46284603B0F0BD01A82721017002A813
:1050400037210170A006D9D501A84721417002A8D7
:1050500057214170E005D3D4D8E7C0466B950000D6
:105060006895000026040000264666003656760045
:1050700048062020F0B585B00E4605460021CC43F9
:105080001920800186426FD8072028406CD00191FA
:1050900003AF384600F05CFC3046FBF740FB3D496F
:1050A000FBF71CF939788A1E0121CA41072A5BD80F
:1050B0008D21CE053849C0467A4412795200974472
:1050C0000E0353075353530B23214E06354906E075
:1050D0008B21CE05324902E045210E062F4902946C
:1050E0000746FBF7BEF8FBF735FB044631462E4674
:1050F00004ADE8703846FBF7B4F8FBF72BFB68709B
:10510000210AA970000A2870AF1CF00706D1B00769
:1051100018D47007029C2AD4019C25E03C46492003
:1051200087003846B030022104AA01F051FF002860
:1051300019D1022138462746224601F049FF0028AE
:1051400011D1E4E7492084002046B430022104AAAA
:1051500001F03EFF002806D1201D02213A4601F051
:1051600037FF0028D5D0029C204605B0F0BD49206D
:1051700085002846B830022104AA01F029FF002842
:10518000F2D10835022128463A4601F021FF0028D5
:10519000EAD1C1E700004843000040460000C04497
:1051A000000040450000C04510B5044609490A68A2
:1051B000D20708D00A68D20705D00A68D20702D001
:1051C0000A68D207F3D1E1B20348FCF74FFA204650
:1051D00010BDC046089110400080104010B5044634
:1051E000017B4842484120731C480068002906D0D2
:1051F000208082B26188914205D8494204E06080F3
:105200006089208110BDC943081880B2FBF787FA76
:1052100001461448FBF762F804F08CF8FBF79AFAA1
:105220006081208110BDC0460C49096841807047EB
:1052300010B5044609480068208080B26188814228
:1052400001D9074A8018401AFBF75EFA0549FBF7B7
:1052500045F80549FBF705F8606010BD00988640E9
:10526000FFFF00000050C34700007A44F0B58BB048
:1052700006920C46074608AA0026567001201070B8
:10528000E148C568E14909C9817C1878C8230793BA
:10529000009340000223A847F143002800D002E118
:1052A00004940591D84D6969079C2046884708AA4F
:1052B0001670ED68D54909C9C17B18780094400083
:1052C0000123A847002800D0ECE00396CE48C5682B
:1052D000CE4E05CE41791078079A0092400008AA78
:1052E0000123083EA847002800D0DBE0C648C56877
:1052F00005CE817C1078079A0092400008AA01230D
:10530000083EA847002800D0CCE0BF48C56805CEBD
:10531000C17D1078079A0092400008AA0123083E38
:10532000A847002800D0BDE0B748C56805CE017980
:105330001078079A0092400008AA0123083EA84767
:10534000002800D0AEE008AA0C201070AE48C56856
:1053500009CE01791878079B009340000123083E8D
:10536000A847002800D09DE0A74D69690F20884715
:10537000B06A407A08AA1070ED6809CE8178187872
:10538000079B009340000123083EA847002800D057
:1053900088E0B06A007A08AA10709B48C56809CEF8
:1053A00041781878079B009340000123083EA847E6
:1053B000002877D1B06A807A0699002901D0E021CF
:1053C0000843914908AA1070CD6809CE81791878F0
:1053D000079B009340000123083EA847002861D1A5
:1053E0000698002805D01F20C143B06AC07A084340
:1053F00000E0182008AA1070F448C56809CEC179E9
:105400001878079B009340000123083EA847002816
:1054100048D10698002803D0EC484169C820884745
:1054200008AA40201070E948C56809CE01791878AB
:10543000079B009340000123083EA847002831D174
:1054400008AA78201070E148C56809CE417918781B
:10545000079B009340000123083EA847002821D164
:10546000DA4D69693220884708AA03981070ED6800
:1054700009CE41791878079B0093400001230293DD
:10548000083EA84700280DD1D048056905CE817A8D
:105490001078079A0092400008AA0223083EA84705
:1054A000002803D0059908460BB0F0BD3846039993
:1054B00039607960B960049801604160816008A832
:1054C000008840BA52494143C80CC0B20690002837
:1054D00037D0BE48056905CEC17A1078079A009288
:1054E000400008AA0C23083EA8470028DAD10898F3
:1054F000C0BA049B1968081818600998C0BA99685E
:1055000008189860586808A94A88D2BA8018586064
:105510000A98C0BA3B467A6815187D604889C0BAB7
:10552000BA681018B860C988C9BA3A6851180C46E8
:1055300039600399491C0391C9B2069A9142C8D3B4
:1055400003E0384630CF3868083F010CC217120418
:10555000511800048322079200263346FAF7C4FD4F
:10556000069A3346FAF7C0FD0197B860280CE91790
:10557000090409182804079F3A463346FAF7B4FD90
:10558000069D2A463346FAF7AFFD01994860200C84
:10559000E1170904091820043A463346FAF7A4FD36
:1055A0002C462A463346FAF79FFD01990860049D70
:1055B0002868C10EC21752015118400122463346D5
:1055C000FAF792FD28606868C10EC217520151189F
:1055D000400122463346FAF787FD6860A868C10E8D
:1055E000C217520151184001224635463346FAF798
:1055F0007BFD002802DC0299090400E00549081837
:105600000499886029464EE740002020640020204D
:10561000ABAA00000000FFFFF0B583B0FBF77FF8F6
:1056200001467F20C005FAF759FE3249FAF719FE04
:1056300002900126B40430490878944A00280BD01F
:105640002F48002505802F4805702C4805801068DC
:1056500020421FD10D7001E02848058837461068A8
:105660001646204205D02748012101706D1C2348B1
:10567000058025480299FAF731FEFBF76BF8A9B2CD
:10568000814232463E4606D903211B480670084631
:1056900003B0F0BD10681B4801780020012927D114
:1056A00017490D88126822420190274601D16D1CCE
:1056B0000D801648029C2146FAF710FEFBF74AF8C7
:1056C000009013482146FAF709FEFBF743F8A9B208
:1056D000009A914208D9814206D26C48006838424B
:1056E000019805D00221D0E7814231460198CCD8FB
:1056F00003B0F0BD00007A4460082020620820203A
:1057000066082020640820200000FA430000484278
:105710000000964382B0FEF70DFF2A48016801257C
:1057200029430160284E3068804728480068804738
:10573000FBF74AFBE903264A116026480160A903EA
:105740001160016024490A682A430A60022101604D
:10575000016020210160F368002420A22046214638
:10576000984770698047FCF78DFAFBF791FFB069A5
:1057700080471D48042101600194E0431B490860F3
:105780001B48322101601B4E1B4F1C4C02E020685D
:10579000002812D0FBF768FA01F0DAFCFEF736FFBA
:1057A00040423040B842F2D32802384909680140EB
:1057B0002160680212490860E9E701981149087000
:1057C000E8E7C046049886402400202040002020BE
:1057D00080E200E000E100E004388640646D702063
:1057E000696E69742E2E2E00D0052020C80420205A
:1057F0002031104000FEFF0000127A000C00202033
:10580000B0320A4008002020F0B581B01A481B4988
:1058100001601B49812048601A48801E08601A4DAB
:1058200002272F602F6300262F6001242046FFF7F8
:1058300037F82846103807602046FFF731F813483C
:105840000068C00703D1701C632E0646ECD30A4AD9
:105850000A4810600A4B0B481860586060061968C7
:1058600001431960596801435960101F08490160DC
:10587000FEF7CAFC01B0F0BD04080F40030000B100
:105880000480424083000400A0120A4080130A40B2
:1058900001000026F0B587B004462420C14E305CDC
:1058A000002802D0002007B0F0BDB17A0020C74325
:1058B00000294AD0FE2214402140327C04923174E7
:1058C000A14200D0C043002C18D1317D002915D150
:1058D000044606AA00201070B148C56809CEC17BF5
:1058E0001878C823009340000123083EA8470028E9
:1058F00001D106987074204607B0F0BD717C002974
:1059000018D105AA01231370A549C968029122CEB6
:10591000C97B01912978C82500954D000390284640
:105920000199029D083EA84701460398002901D12C
:1059300005997174002CDFD0044600F0B1FB0146DC
:1059400020460029D8D004983074384607B0F0BDFE
:1059500010B501460020934B5A7A032A0AD8D20088
:10596000054CD4400C70DB7C002B02D0034BD340A1
:105970000B7010BDC04310BD0204081004081020B5
:1059800010B501460020084A537A032B0AD85B0061
:1059900006A4E45A0C80D27C002A02D005A2D25A76
:1059A0000A8010BDC04310BD6400202000409C1F31
:1059B000001000080020CE0F0008000410B50146BA
:1059C0000020E84A137A032B0FD8094A7B441B793D
:1059D0005B009F4408010407084A0A6010BD064A9C
:1059E0000A6010BD034A0A6010BDC04310BDC04626
:1059F00000000343333383413333034200008342C7
:105A0000F0B587B004AA802010706548C468654D61
:105A100009CD817C1878C826009640000123083DF6
:105A2000A0470027F943002820D103915C4C61690D
:105A30006420884704AA1770E46809CD817C18782F
:105A400000964000029701273B46083DA0470028EA
:105A50000BD15348046905CD817D10780096400034
:105A600004AA0623A047002803D00399084607B0DC
:105A7000F0BD354604A8417839404279D207520F2B
:105A8000C078C007800F8018411852D03B460129CA
:105A9000039A434C05D00229029F70D12E463D4601
:105AA00002E02E46029F0D46FF203E49887408748E
:105AB0004648C881CD740B738A6018044F618F61AA
:105AC000CF61086208460830077747778777C7773E
:105AD00006AA18201070E4680D4681C981793878CB
